:020000040800F2
:1000000000800020D5220008EF200008F120000821
:10001000F3200008F5200008F72000080000000089
:10002000000000000000000000000000F9200008AF
:10003000FB20000800000000FD200008FF20000851
:100040002523000825230008252300082523000870
:100050002523000825230008252300082523000860
:100060002523000825230008252300082523000850
:100070002523000825230008252300082523000840
:100080002523000800000000252300082523000880
:100090002523000825230008252300082523000820
:1000A0002523000825230008252300082523000810
:1000B0002523000825230008252300082523000800
:1000C00025230008252300082523000825230008F0
:1000D00025230008252300082523000825230008E0
:1000E00025230008252300082523000825230008D0
:1000F0002523000825230008252300080000000010
:10010000000000002523000800000000252300084F
:1001100025230008000000002523000825230008EF
:10012000252300082523000825230008252300088F
:10013000252300080000000000000000252300081F
:10014000252300082523000800000000000000000F
:10015000000000000000000000000000000000009F
:10016000000000000000000000000000252300083F
:10017000252300080000000000000000000000002F
:10018000000000002523000800000000000000001F
:10019000000000000000000000000000000000005F
:1001A00000000000000000002523000825230008AF
:1001B000252300082523000825230008000000004F
:1001C00000000000252300080000000000000000DF
:0801D000252300082523000887
:1001D8000348044B834202D0034B03B118477047CE
:1001E8000C0000200C000020000000000548064B11
:1001F8001B1AD90F01EBA301491002D0034B03B11D
:10020800184770470C0000200C0000200000000078
:1002180010B5064C237843B9FFF7DAFF044B13B146
:100228000448AFF300800123237010BD0C000020A8
:10023800000000002823000808B5044B1BB104493E
:100248000448AFF30080BDE80840CFE70000000095
:10025800100000202823000870B50F4B0F4DAB424B
:10026800A3EB050607D0B610002455F8043B01346B
:100278009847A642F9D802F053F8094D094B5E1B7E
:10028800AB424FEAA60606D0002455F8043B0134D9
:100298009847A642F9D870BD88230008882300082B
:1002A800882300088C230008830730B547D0541EE4
:1002B800002A3ED0CAB2034601E0013C39D303F814
:1002C800012B9D07F9D1032C2CD9CDB205EB0525BF
:1002D8000F2C05EB054535D9A4F1100222F00F0CBF
:1002E80003F1100EE6444FEA121C1A46C2E9005503
:1002F800C2E9025510327245F8D10CF1010214F02E
:100308000C0F03EB021204F00F0C13D0ACF1040332
:1003180023F003030433134442F8045B9342FBD1F4
:100328000CF003042CB1C9B21C4403F8011BA3420E
:10033800FBD130BD64461346002CF4D1F9E70346DF
:100348001446C0E71A46A446E0E700BF53B94AB9C5
:10035800002908BF00281CBF4FF0FF314FF0FF30C5
:1003680000F06AB9ADF1080C6DE904CE00F006F8AA
:10037800DDF804E0DDE9022304B070472DE9F04719
:10038800089D0E4604460F46002B4AD194468C45DC
:10039800B2FA82F260D942B1C2F12003974020FA42
:1003A80003F30CFA02FC1F4394404FEA1C4E1FFA59
:1003B8008CF6B7FBFEF1230C0EFB117743EA0743DB
:1003C80001FB06F098420AD91CEB030301F1FF3741
:1003D80080F01581984240F21281023963441B1A59
:1003E800A4B2B3FBFEF00EFB103344EA034400FB57
:1003F80006F6A6420AD91CEB040400F1FF3380F08C
:100408000081A64240F2FD806444023840EA01407F
:10041800A41B00211DB1D4400023C5E90043BDE859
:10042800F0878B4205D90DB1C5E9000100210846C6
:10043800F5E7B3FA83F1002946D1B34202D38242E9
:1004480000F2F580841A66EB030201201746002D9E
:10045800E5D0C5E90047E2E7002A40F09380A1EB28
:100468000C034FEA1C471FFA8CFE0121B3FBF7F679
:1004780007FB1630230C43EA00430EFB06F09842B4
:1004880008D91CEB030306F1FF3802D2984200F2A8
:10049800D08046461B1AA4B2B3FBF7F007FB103313
:1004A80044EA03440EFB00FEA64508D91CEB0404ED
:1004B80000F1FF3302D2A64500F2B6801846A4EB3D
:1004C8000E0440EA0640A5E7C1F120078B4022FA56
:1004D80007FC4CEA030C06FA01FE20FA07F426FA98
:1004E80007F344EA0E0400FA01F84FEA1C404FEA09
:1004F8001449B3FBF0FE1FFA8CF600FB1E3349EAE1
:1005080003430EFB06F9994502FA01F20BD91CEBDD
:1005180003030EF1FF3A80F08580994540F282800E
:10052800AEF1020E6344A3EB0909A4B2B9FBF0F3E0
:1005380000FB139944EA094403FB06F6A64208D9CE
:100548001CEB040403F1FF3068D2A64266D9023BD3
:10055800644443EA0E40A41BA0FB02E6B44273467F
:10056800B14652D34FD05DB1B8EB030264EB090436
:1005780004FA07F722FA01F31F43CC40C5E90074D7
:1005880000214CE7C2F1200120FA01F30CFA02FC29
:1005980026FA01F1964033434FEA1C471FFA8CFEB6
:1005A800B1FBF7F007FB1016190C41EA064100FBF6
:1005B8000EF68E4204FA02F408D91CEB010100F190
:1005C800FF382DD28E422BD902386144891B9BB249
:1005D800B1FBF7F607FB161143EA014306FB0EF1E0
:1005E800994208D91CEB030306F1FF3814D299424B
:1005F80012D9023E63445B1A46EA004136E739469F
:10060800EDE6184602E7F045ADD2BEEB020366EB15
:100618000C060138B146A6E74646ECE7034698E7DC
:100628004046D3E7D6467EE76444023847E70846A3
:100638000DE7023E63442DE7704700BF08B50F4839
:100648000F4B0360002343608360C36003744374EB
:1006580083741022426101228261C2610262426295
:100668008262C262026343638363C36300F09AF9E0
:1006780000B908BD00F066F8FBE700BF28000020BD
:100688000064004010B598B00446002113911491FD
:10069800159116911791442202A8FFF705FE2268CA
:1006A8001A4B9A4201D018B010BD4FF480530293F0
:1006B8004FF000730E9302A800F0FAFF10BB144B22
:1006C8009A6D42F000729A659A6D02F0007200927B
:1006D800009ADA6C42F00102DA64DB6C03F0010381
:1006E8000193019B4FF4C0531393022314930023E7
:1006F800159316930923179313A94FF0904000F010
:100708003BFAD0E700F01EF8D9E700BF00640040CC
:100718000010024082B00A4BDA6C42F02002DA6420
:10072800DA6C02F020020092009ADA6C42F00102C0
:10073800DA64DB6C03F001030193019B02B070479C
:100748000010024072B6FEE700B595B038220021CD
:1007580006A8FFF7A9FD00200190029003900490DD
:10076800059000F00FFB012306934FF480330793A5
:1007780002230D9303220E920F9355221092119388
:100788001293139306A800F0B7FB80B90F230193C7
:1007980003230293002303930493059304210DEB91
:1007A800010000F05FFE20B915B05DF804FBFFF70B
:1007B800C9FFFFF7C7FF08B500F034F8FFF7C4FF1B
:1007C800FFF7A8FFFFF73AFF01F0A4FC01F0D6FC01
:1007D800FEE70000104B1B680BB90120704710B5ED
:1007E80004464FF47A70B0FBF3F30C4A1068B0FB80
:1007F800F3F000F08FF868B90F2C01D901200AE056
:10080800002221464FF0FF3000F074F8044B1C60C2
:10081800002000E0012010BD00000020080000209A
:100828000400002010B5032000F052F80F20FFF755
:10083800D1FF10B10124204610BD044600F086FA0D
:10084800F9E70000034A1368034909680B44136079
:10085800704700BF8C00002000000020014B186882
:10086800704700BF8C000020002808DB0901C9B2CE
:1008780000F1604000F5614080F80013704700F017
:100888000F000901C9B2014B1954704714ED00E07B
:1008980000B500F00700C0F1070CBCF1040F28BF39
:1008A8004FF0040C031D062B0FD9C31E4FF0FF3E5B
:1008B8000EFA0CF021EA000199400EFA03FE22EA32
:1008C8000E0241EA02005DF804FB0023EEE7000097
:1008D800074AD36823F4E0631B041B0C000200F4EE
:1008E800E060034343F0BF6343F40033D3607047D1
:1008F80000ED00E010B50446054BD868C0F30220AF
:10090800FFF7C6FF01462046FFF7AEFF10BD00BF48
:1009180000ED00E00138B0F1807F0BD24FF0E0230A
:100928005861054AF02182F82310002098610722B7
:100938001A6170470120704700ED00E010B4154BB4
:1009480003640168D1F8802022F4F812446B42EA6B
:100958000442C1F88020104A42640168D1F880201E
:1009680022F07062846B42EA0462C1F880200B4A6C
:100978008264D832C264D83202651832426502E015
:10098800002243F8042B064A9342F9D95DF8044B38
:10099800704700BF00A4004070A40040B0A400400D
:1009A8004FA70040002800F0E38038B5044690F8CF
:1009B8005C30D3B12268936923F010039361FFF789
:1009C8004DFF054623689A6912F0080F12D0FFF709
:1009D80045FF401B0A28F5D9236E43F0010323661F
:1009E800032384F85C30012038BD80F85D30FFF7C0
:1009F80049FEDFE79A6942F001029A61FFF72EFF8C
:100A0800054623689A6912F0010F0DD1FFF726FFFA
:100A1800401B0A28F5D9236E43F0010323660323FC
:100A280084F85C300120DFE79A6942F002029A619B
:100A38002268504B9A4242D0237C012B45D0226831
:100A4800936943F040039361637C012B43D0226890
:100A5800936923F480439361A37C012B41D02268DE
:100A6800936943F4805393612268936923F4407334
:100A7800A1680B4393612268936923F0A4039361EF
:100A88002268136923F010031361E368012B2ED049
:100A9800002B31D0022B54D02268936943F0800395
:100AA80093612268136943F010031361E368032B11
:100AB80022D12268936943F0200393611CE06268A5
:100AC800A3F58063C3F80025B6E72268936923F08D
:100AD80040039361B8E72268936943F480439361C4
:100AE800BAE72268936923F480539361BCE72268CC
:100AF800936943F004039361A3695A1EE369013BB8
:100B08001B0243EA4263226A013A13436269013ACB
:100B1800216843EA0243CB61A368B3F5407F16D04E
:100B28002268D2F8C030E16B0B43C2F8C0302046CF
:100B3800FFF704FF0020A0652066012384F85C30DD
:100B480052E72268936943F020039361D4E7A36ACC
:100B5800013BE26A013A43EA0223226B013A43EA83
:100B68000213626A013A216843EA0243CB60D7E77D
:100B78000120704700640040F0B583B0002362E0B4
:100B880085685E000324B44025EA0405CC68B440B7
:100B98002C438460456825EA0C054C68C4F30014AE
:100BA8009C402C4344605FE0DD08083550F8254040
:100BB80003F0070C4FEA8C0C4FF00F0E0EFA0CFEE8
:100BC80024EA0E0E0C6904FA0CF444EA0E0440F808
:100BD800254060E0052400E0002404FA0EF42C43CC
:100BE8000CF1020C554D45F82C40554CA568D443E2
:100BF80025EA02064F6817F4801F01D042EA05066D
:100C08004F4DAE60ED6804EA05064F6817F4001F03
:100C180001D042EA05064A4DEE606D6804EA050611
:100C28004F6817F4003F01D042EA0506444D6E6054
:100C38002D682C404E6816F4803F01D042EA050426
:100C48003F4A146001330A6832FA03F474D04FF053
:100C5800010C0CFA03FC1CEA0202F3D04C6804F005
:100C68000304013C012C8BD94C6804F00304032CC9
:100C78000CD0C4685D004FF0030C0CFA05FC24EAA4
:100C88000C0C8C68AC4044EA0C04C4604C6804F05A
:100C98000304022C88D004684FEA430E4FF0030C7B
:100CA8000CFA0EFC24EA0C0C4C6804F0030404FA59
:100CB8000EF444EA0C0404604C6814F4403FC1D0BC
:100CC800204C256E45F001052566246E04F00104CC
:100CD8000194019C4FEA930C0CF10205174C54F84F
:100CE800255003F0030E4FEA8E0E0F2404FA0EF47B
:100CF80025EA0405B0F1904F3FF46EAF124CA042C4
:100D080012D004F58064A04210D004F58064A0429B
:100D18000ED004F58064A0420CD004F58064A04293
:100D28003FF458AF062458E7012456E7022454E755
:100D3800032452E7042450E703B0F0BD000001404B
:100D480000040140001002400004004800B583B0D0
:100D58000B4B1A6E42F001021A661A6E02F001027B
:100D68000092009A9A6D42F080529A659B6D03F04A
:100D780080530193019B00F08BF803B05DF804FBEE
:100D880000100240002836D13E4B1B6803F4C063B4
:100D9800B3F5806F08D03B4AD2F8803023F48073D3
:100DA800C2F8803000207047364AD2F8803023F4E9
:100DB8008073C2F88030136823F4C06343F400736F
:100DC8001360314B1B68322202FB03F32F4AA2FB4C
:100DD80003239B0C013300E0013B2A4A526912F4B9
:100DE800806F01D0002BF7D1264B5B6913F4806F1D
:100DF80044D100207047B0F5007F08D0214A13681D
:100E080023F4C06343F480631360002070471D4BD4
:100E18001B6803F4C063B3F5806F08D0194AD2F891
:100E2800803043F48073C2F8803000207047154A40
:100E3800D2F8803043F48073C2F88030136823F40A
:100E4800C06343F4007313600F4B1B68322202FB2C
:100E580003F30E4AA2FB03239B0C013300E0013B82
:100E6800084A526912F4806F01D0002BF7D1054B64
:100E78005B6913F4806F03D100207047032070472B
:100E880003207047007000400800002083DE1B43E9
:100E9800024A936843F480439360704700700040AF
:100EA800124BDA6802F00302DB68C3F30313013361
:100EB800032A11D00E48B0FBF3F00C4BDB68C3F3E8
:100EC800062303FB00F0094BDB68C3F341630133DE
:100ED8005B00B0FBF3F070470648B0FBF3F0034B40
:100EE800DB68C3F3062303FB00F0ECE700100240C5
:100EF8000024F40000127A00002800F04F8270B538
:100F080082B00446036813F0010F37D0A44A9368EF
:100F180003F00C03D26802F003020C2B23D0082B39
:100F280023D06368B3F5803F4ED0B3F5A02F51D0DE
:100F38009B4B1A6822F480321A601A6822F48022C5
:100F48001A606368002B52D0FFF788FC0546944B63
:100F58001B6813F4003F11D1FFF780FC401B642885
:100F6800F5D9032023E2032AD9D18D4B1B6813F44A
:100F7800003F03D06368002B00F01282236813F04F
:100F8800020F5DD0864A936803F00C03D26802F022
:100F980003020C2B3AD0042B3AD0E368002B75D00F
:100FA8007F4A136843F480731360FFF757FC0546C4
:100FB8007B4B1B6813F4806F5FD1FFF74FFC401B1E
:100FC8000228F5D90320F2E1754A136843F4803307
:100FD8001360B6E703F18043A3F53C331A6842F483
:100FE80080221A601A6842F480321A60A9E7FFF773
:100FF80035FC05466A4B1B6813F4003FBED0FFF76B
:101008002DFC401B6428F5D90320D0E1022AC2D167
:10101800634B1B6813F4806F03D0E368002B00F068
:10102800C1815F4A536823F0FE43216943EA0163A3
:1010380053605C4B1868FFF7CDFB002840F0B48183
:10104800236813F0080F4CD063699BB3544AD2F855
:10105800943043F00103C2F89430FFF7FFFB0546D4
:101068004F4BD3F8943013F0020F3AD1FFF7F6FB49
:10107800401B0228F4D9032099E1494A536823F018
:10108800FE43216943EA01635360D9E7444A136880
:1010980023F480731360FFF7E1FB0546404B1B68A0
:1010A80013F4806FCCD0FFF7D9FB401B0228F5D989
:1010B80003207CE13A4AD2F8943023F00103C2F8C5
:1010C8009430FFF7CBFB0546354BD3F8943013F03B
:1010D800020F06D0FFF7C2FB401B0228F4D90320F9
:1010E80065E1236813F0040F00F081802C4B9B6DA1
:1010F80013F0805F36D12A4B9A6D42F080529A6580
:101108009B6D03F080530193019B0125264B1B68BF
:1011180013F4807F28D0A368012B39D0052B45D044
:101128001F4BD3F8902022F00102C3F89020D3F887
:10113800902022F00402C3F89020A368002B43D02B
:10114800FFF78CFB0646164BD3F8903013F0020FCE
:101158004CD1FFF783FB801B41F288339842F2D9C8
:10116800032024E10025D1E70F4A136843F4807374
:101178001360FFF773FB06460B4B1B6813F4807F65
:10118800C9D1FFF76BFB801B0228F5D903200EE1BC
:10119800034AD2F8903043F00103C2F89030CCE70C
:1011A800001002400400002000700040884BD3F873
:1011B800902042F00402C3F89020D3F8902042F027
:1011C8000102C3F89020B8E7FFF748FB0646804BBA
:1011D800D3F8903013F0020F08D0FFF73FFB801BC5
:1011E80041F288339842F2D90320E0E0E5B9236858
:1011F80013F0200F35D0A369E3B1754AD2F89830BF
:1012080043F00103C2F89830FFF728FB0546704BFE
:10121800D3F8983013F0020F23D1FFF71FFB401BC0
:101228000228F4D90320C2E0694A936D23F0805361
:101238009365DCE7664AD2F8983023F00103C2F8D8
:101248009830FFF70BFB0546614BD3F8983013F045
:10125800020F06D0FFF702FB401B0228F4D9032037
:10126800A5E0E369002B00F0A180594A926802F0DA
:101278000C020C2A64D0022B13D0554A136823F0B1
:1012880080731360FFF7EAFA0446514B1B6813F0AA
:10129800007F4ED0FFF7E2FA001B0228F5D90320A1
:1012A80085E04B4A136823F080731360FFF7D6FA82
:1012B8000546474B1B6813F0007F06D0FFF7CEFAB0
:1012C800401B0228F5D9032071E0414AD3684149FF
:1012D8001940236A606A013843EA0013A06A43EAA6
:1012E8000023206B4008013843EA4053606B4008F4
:1012F800013843EA4063E06A43EAC0631943D160B6
:10130800136843F080731360D36843F08073D3602D
:10131800FFF7A4FA04462E4B1B6813F0007F06D192
:10132800FFF79CFA001B0228F5D903203FE00020B4
:101338003DE0274AD168284B0B40D360002036E0B7
:10134800012B36D0224BDB6803F00301226A91425D
:1013580031D103F0F002616A0139B2EB011F2CD1DF
:1013680003F4FE42A16AB2EB012F28D103F07842C0
:10137800E16AB2EBC16F24D103F4C001226B5208B9
:10138800013AB1EB425F1ED103F0C063626B5208B1
:10139800013AB3EB426F18D1002008E001207047F2
:1013A800012004E0012002E0012000E0002002B05A
:1013B80070BD0120FBE70120F9E70120F7E70120D4
:1013C800F5E70120F3E70120F1E70120EFE700BF8F
:1013D800001002400C809F01FCFFEEFE1E4B9B6834
:1013E80003F00C03042B33D01B4B9B6803F00C0356
:1013F800082B2FD0184B9B6803F00C030C2B01D043
:1014080000207047144BDA6802F00302DB68C3F36C
:1014180003130133032A11D01048B0FBF3F00E4B2D
:10142800DB68C3F3062303FB00F00B4BDB68C3F355
:10143800416301335B00B0FBF3F070470848B0FB31
:10144800F3F0054BDB68C3F3062303FB00F0ECE77E
:101458000248704702487047001002400024F40018
:1014680000127A00002800F0E680F8B50C46054620
:10147800744B1B6803F00F038B420BD2714A13683D
:1014880023F00F030B431360136803F00F038B4221
:1014980040F0D3802E6816F001065FD06B68032BEE
:1014A8002FD0022B4DD0684B1B6813F4806F00F0CF
:1014B800C680FFF793FF654B98424DD9624A9368FF
:1014C80023F0F00343F08003936080265E4A93681C
:1014D80023F0030369680B439360FFF7BFF90746DE
:1014E800594B9B6803F00C036A68B3EB820F35D045
:1014F800FFF7B4F9C01B41F288339842F0D90320B2
:1015080078E0514B1B6813F0007F01D1012071E096
:10151800FFF7C6FC4D4B98421AD94B4B9B6813F00A
:10152800F00F05D02E6816F00206CFD0AB688BB945
:10153800454A936823F0F00343F0800393608026C4
:10154800C4E7414B1B6813F4003FB2D1012051E0BE
:101558000026BBE70026B9E70026B7E72B6813F09B
:10156800020F48D013F0040F04D0374A936843F4AD
:10157800E06393602B6813F0080F06D0324A936833
:1015880023F47C5343F4E06393602F4A936823F079
:10159800F003A9680B4393602A4B1B6803F00F0301
:1015A800A34230D82B6813F0040F06D0264A93685C
:1015B80023F4E063E9680B4393602B6813F0080F8A
:1015C80007D0214A936823F46053296943EAC10389
:1015D8009360FFF703FF1C4B9B68C3F303131C4A7C
:1015E800D35C03F01F03D8401A4B18601A4B1868D5
:1015F800FFF7F0F8F8BD802ECED1134A936823F098
:10160800F0039360C8E70F4A136823F00F032343DE
:101618001360FFF723F906460A4B1B6803F00F0314
:10162800A342BFD0FFF71AF9801B41F288339842D2
:10163800F2D90320DEE7012070470120DAE7012014
:10164800D8E700BF002002400010024000B4C404E4
:10165800702300080800002004000020014B1868CF
:10166800704700BF0800002008B5FFF7F7FF054BDB
:101678009B68C3F30223044AD35C03F01F03D840DA
:1016880008BD00BF001002406823000808B5FFF736
:10169800E5FF054B9B68C3F3C223044AD35C03F000
:1016A8001F03D84008BD00BF00100240682300088F
:1016B800F0B583B00446036813F4002F69D0AE4B2D
:1016C8009B6D13F0805F1ED1AB4B9A6D42F0805238
:1016D8009A659B6D03F080530193019B0126A74AED
:1016E800136843F480731360FFF7B8F80546A34BFB
:1016F8001B6813F4807F08D1FFF7B0F8401B02285D
:10170800F5D9032502E00026E9E7002545BB9A4BF9
:10171800D3F8903013F4407315D0226C9A4212D04B
:10172800954AD2F8903023F44073D2F8901041F4DF
:101738008031C2F89010D2F8901021F48031C2F8AC
:101748009010C2F8903013F0010F10D145B98A4AB1
:10175800D2F8903023F44073216C0B43C2F89030D8
:10176800C6B1854A936D23F08053936512E0FFF765
:1017780075F80746804BD3F8903013F0020FE5D187
:10178800FFF76CF8C01B41F288339842F2D9032561
:10179800DCE70025236813F0010F08D0764AD2F859
:1017A800883023F0030361680B43C2F8883023684C
:1017B80013F0020F08D0704AD2F8883023F00C03D7
:1017C800A1680B43C2F88830236813F0040F08D0CF
:1017D800694AD2F8883023F03003E1680B43C2F835
:1017E8008830236813F0080F08D0634AD2F888308D
:1017F80023F0C00321690B43C2F88830236813F033
:10180800200F08D05C4AD2F8883023F4406361691D
:101818000B43C2F88830236813F0400F08D0564AAB
:10182800D2F8883023F44053A1690B43C2F88830BA
:10183800236813F0800F08D04F4AD2F8883023F479
:101848004043E1690B43C2F88830236813F4807F72
:1018580008D0494AD2F8883023F44033216A0B4330
:10186800C2F88830236813F4007F08D0424AD2F8BF
:10187800883023F44023616A0B43C2F88830236818
:1018880013F4806F0CD03C4AD2F8883023F440130C
:10189800A16A0B43C2F88830A36AB3F5801F57D0FA
:1018A800236813F4006F0CD0334AD2F8883023F43D
:1018B8004003E16A0B43C2F88830E36AB3F5800F4E
:1018C8004BD0236813F4805F0CD02B4AD2F88830B1
:1018D80023F04073216B0B43C2F88830236BB3F1BC
:1018E800807F3FD0236813F4005F0CD0224AD2F8DF
:1018F800883023F04063616B0B43C2F88830636B18
:10190800B3F1006F33D0236813F4804F0CD01A4A18
:10191800D2F8883023F04063A16B0B43C2F88830BB
:10192800A36BB3F1006F2BD0236813F4004F0CD0D6
:10193800114AD2F8883023F04053E16B0B43C2F8C8
:101948008830E36BB3F1805F1FD0284603B0F0BD49
:10195800D36843F48013D360A2E7D36843F48013B9
:10196800D360AEE7D36843F48013D360BAE7D36893
:1019780043F48013D360C6E70010024000700040B3
:10198800D36843F48013D360CEE7D36843F480333D
:10199800D360DAE7026852E8003F23F4907342E824
:1019A80000310029F6D1026802F1080353E8003F2C
:1019B80023F0805323F00103083242E80031002964
:1019C800F1D1C36E012B06D02023C0F88C30002340
:1019D800C36643677047026852E8003F23F010036C
:1019E80042E800310029F6D1EEE7000070B5044660
:1019F80083680269134342691343C2691343016848
:101A080008688B4A02401A430A602268536823F424
:101A18004053E1680B435360A1692268854B9A42A1
:101A280001D0236A1943936823F06E4323F430638B
:101A38000B4393602268D36A23F00F03616A0B4358
:101A4800D36223687C4A934223D07C4A934234D0A1
:101A58007B4A93424AD07B4A934259D0754A934273
:101A680068D0102273498B4200F09580E069B0F588
:101A7800004F00F0D280082A00F24F81DFE812F010
:101A88001201340110014D0137014D014D014D0185
:101A98003A0102F55842D2F8882002F00302032ADC
:101AA80009D8DFE802F002045C060122DAE7042222
:101AB800D8E70822D6E71022D4E702F5E632D2F8B2
:101AC800882002F00C020C2A0ED8DFE802F0070D7D
:101AD8000D0D090D0D0D4A0D0D0D0B000022C1E76E
:101AE8000422BFE70822BDE71022BBE702F5E43273
:101AF800D2F8882002F03002202A34D004D8A2B3C9
:101B0800102A34D10422ADE7302A32D10822A9E7BD
:101B180002F5E232D2F8882002F0C002802A2AD0E8
:101B280004D852B3402A2AD104229BE7C02A28D1DC
:101B3800082297E702F5C832D2F8882002F44062FA
:101B4800B2F5006F1FD005D8FAB1B2F5806F1ED17B
:101B5800042287E7B2F5406F1BD1082282E70222F0
:101B680080E702227EE702227CE700227AE7102241
:101B780078E7102276E7022274E7002272E7102243
:101B880070E710226EE702226CE700226AE7102253
:101B980068E7102266E7082A00F2AF80DFE802F063
:101BA80008AD3BAD38ADADAD05004FF4004004E0E5
:101BB800FFF75AFD002800F0A280626A224B33F832
:101BC8001220B0FBF2F3656805EB4501994200F27B
:101BD8009880B3EB053F00F29680002633463146E5
:101BE800FEF7B4FB090241EA106100026B08C01855
:101BF8002A46334641F10001FEF7A8FBA0F54072E2
:101C0800124B9A4200F281802368D860304662E025
:101C1800FFF7E4FBCEE70E48CFE7082A77D8DFE8DE
:101C280002F0193905763C7676761D00084815E0ED
:101C3800F369FFCF008000400038014000440040B5
:101C480000480040004C004040230008FFFC0F0003
:101C58000024F400FFF708FD00285AD0626A324BCE
:101C680033F81230B0FBF3F06268530803EB40031B
:101C7800B3FBF2F3A3F110014FF6EF7291424AD889
:101C88009AB222F00F02C3F3420313432268D360CF
:101C9800002020E0FFF7FAFCDEE7FFF79FFBDBE719
:101CA800224803E0FFF7E0FC002838D0626A1E4BA8
:101CB80033F81230B0FBF3F0636800EB5300B0FB6D
:101CC800F3F0A0F110024FF6EF739A4229D8236877
:101CD80080B2D86000200123A4F86A30A4F86830E4
:101CE80000236367A36770BDFFF7D0FCDCE7FFF74D
:101CF80075FBD9E74FF40040D8E70120EBE7002057
:101D0800E9E70120E7E70120E5E70120E3E7012013
:101D1800E1E70020DFE70120DDE70120DBE7002025
:101D2800D9E70120D7E700BF402300080024F400CA
:101D3800836A13F0080F06D00268536823F400433F
:101D4800816B0B435360836A13F0010F06D002685E
:101D5800536823F40033C16A0B435360836A13F05A
:101D6800020F06D00268536823F48033016B0B43DB
:101D78005360836A13F0040F06D00268536823F493
:101D88008023416B0B435360836A13F0100F06D016
:101D98000268936823F48053C16B0B439360836A92
:101DA80013F0200F06D00268936823F40053016CE7
:101DB8000B439360836A13F0400F0AD0026853689C
:101DC80023F48013416C0B435360436CB3F5801FBD
:101DD8000BD0836A13F0800F06D00268536823F48F
:101DE8000023C16C0B43536070470268536823F4A7
:101DF800C003816C0B435360EBE72DE9F8430546BC
:101E08000E4617469946DDF820802B68DC6936EACD
:101E180004040CBF01240024BC4236D1B8F1FF3FB2
:101E2800F3D0FEF71BFDA0EB0900404530D8B8F110
:101E3800000F2FD02B681A6812F0040FE5D0802EFF
:101E4800E3D0402EE1D0DA6912F0080F11D1DA6937
:101E580012F4006FD9D04FF400621A622846FFF7D7
:101E680099FD2023C5F89030002385F8843003209D
:101E78000CE008241C622846FFF78CFDC5F890404A
:101E8800002385F88430012000E00020BDE8F883B5
:101E98000320FBE70320F9E730B583B004460023AD
:101EA800C0F89030FEF7DAFC05462268126812F096
:101EB800080F10D123681B6813F0040F28D12023C2
:101EC800C4F88830C4F88C300020E066206784F8B5
:101ED800840003B030BD6FF07E43009303460022B8
:101EE8004FF400112046FFF788FF0028E2D022684F
:101EF80052E8003F23F0800342E800310029F6D180
:101F08002023C4F88830002384F884300320E0E7D5
:101F18006FF07E4300932B4600224FF48001204649
:101F2800FFF76BFF0028CAD0226852E8003F23F46D
:101F3800907342E800310029F6D1226802F10803C3
:101F480053E8003F23F00103083242E8003100293A
:101F5800F3D12023C4F88C30002384F88430032084
:101F6800B7E778B310B50446D0F888300BB324230C
:101F7800C4F888302268136823F001031360A36A49
:101F8800E3B92046FFF732FD012811D022685368D3
:101F980023F4904353602268936823F02A039360E4
:101FA8002268136843F0010313602046FFF774FFAB
:101FB80010BD80F8843000F015F9D8E72046FFF707
:101FC800B7FEDEE701207047436E2BB90123A0F866
:101FD8006A30A0F86830704730B403689A68C2F372
:101FE80042629968490F094D6B5CDB00084C615CE3
:101FF80093FBF1F3A0F86A30AB5CDB00A25C93FBC7
:10200800F2F3A0F8683030BC704700BF60230008C6
:102018005823000890F88430012B18D0012380F849
:1020280084302423C0F8883003681A68196821F0BE
:102038000101196022F000520023436601680A601A
:102048002022C0F8882080F8843018467047022083
:10205800704738B590F88430012B1DD00446012311
:1020680080F884302423C0F8883003681D681A6813
:1020780022F001021A600268936823F06043194352
:102088009160FFF7A1FF23681D602023C4F8883002
:10209800002084F8840038BD0220FCE738B590F8A9
:1020A8008430012B1DD00446012380F8843024237A
:1020B800C0F8883003681D681A6822F001021A60A7
:1020C8000268936823F0606319439160FFF77CFF0F
:1020D80023681D602023C4F88830002084F8840019
:1020E80038BD0220FCE7FEE7FEE7FEE7FEE7FEE775
:1020F80070477047704708B5FEF7A4FB08BD00009D
:10210800034AD2F8883043F47003C2F88830704725
:1021180000ED00E008B51748174B03604FF4E133B2
:10212800436000238360C36003610C2242618361C2
:10213800C361036243628362FFF713FF70B9002132
:102148000C48FFF786FF60B900210A48FFF7A6FF91
:1021580050B90848FFF75EFF48B908BDFEF7F2FA24
:10216800EDE7FEF7EFFAEFE7FEF7ECFAF1E7FEF737
:10217800E9FAF2E7240100200038014008B51748C1
:10218800174B03604FF4E133436000238360C3605F
:1021980003610C2242618361C3610362436283620B
:1021A800FFF7DFFE70B900210C48FFF752FF60B956
:1021B80000210A48FFF772FF50B90848FFF72AFFC5
:1021C80048B908BDFEF7BEFAEDE7FEF7BBFAEFE740
:1021D800FEF7B8FAF1E7FEF7B5FAF2E7900000204B
:1021E8000044004010B59AB004460021159116919C
:1021F800179118911991442204A8FEF755F82368FD
:102208002F4A934204D02F4A93422DD01AB010BDC2
:102218000123049304A8FFF74BFA10BB2A4B1A6E4C
:1022280042F480421A661A6E02F480420092009AC2
:10223800DA6C42F00102DA64DB6C03F0010301930B
:10224800019B4FF4C0631593022316930023179341
:1022580018930723199315A94FF09040FEF78CFCAB
:10226800D4E7FEF76FFAD9E70223049304A8FFF72F
:102278001FFA08BB144B9A6D42F400329A659A6DA6
:1022880002F400320292029ADA6C42F00102DA6435
:10229800DB6C03F001030393039B0C2315930223C8
:1022A80016930023179318930723199315A94FF032
:1022B8009040FEF761FCA9E7FEF744FADAE700BFB1
:1022C8000038014000440040001002400D48854697
:1022D800FFF716FF0C480D490D4A002302E0D458B9
:1022E800C4500433C4188C42F9D30A4A0A4C002358
:1022F80001E013600432A242FBD3FDF7ADFFFEF705
:102308005AFAFEE700800020000000200C000020A0
:10231800902300080C000020B8010020FEE7000010
:10232800F8B500BFF8BC08BC9E467047F8B500BFBA
:08233800F8BC08BC9E4670478A
:10234000010002000400060008000A000C00100052
:10235000200040008000000108040204080101017F
:102360000101010307010000000000000102030455
:102370000000000000000000010203040607080935
:0823800004E0FF7F01000000F2
:042388004102000806
:04238C00190200082A
:0C23900001000000100000000024F40018
:04000005080022D5F8
:00000001FF
